:100000000C9434000C946E000C946E000C946E00F2
:100010000C946E000C946E000C946E000C946E00A8
:100020000C946E000C946E000C946E000C946E0098
:100030000C946E000C946E000C946E000C946E0088
:100040000C946E000C946E000C946E000C946E0078
:100050000C946E000C946E000C946E000C946E0068
:100060000C946E000C946E0011241FBECFEFD8E0EC
:10007000DEBFCDBF0E9440000C943E00F894FFCF3D
:1000800084B1846084B984B1826084B98AB1877F85
:100090008AB98BB188608BB985B1846085B92FEF3F
:1000A00081EE94E0215080409040E1F700C00000D4
:1000B00085B18B7F85B92FEF81EE94E02150804090
:1000C0009040E1F700C000004B9B04C085B1826006
:0C00D00085B9E2CF85B18D7F85B9DECF08
:0400DC000C94000080
:00000001FF
